:0200000460009A
:100000004643464200000156000000000101020084
:1000100000000000000000000000000000000000E0
:1000200000000000000000000000000000000000D0
:1000300000000000000000000000000000000000C0
:1000400000000000010403000000000000000000A8
:100050000000200000000000000000000000000080
:100060000000000000000000000000000000000090
:100070000000000000000000000000000000000080
:10008000EB04180A063204260000000000000000FD
:10009000050404240000000000000000000000002F
:1000A0000000000000000000000000000000000050
:1000B0000604000000000000000000000000000036
:1000C0000000000000000000000000000000000030
:1000D00020041808000000000000000000000000DC
:1000E0000000000000000000000000000000000010
:1000F0000000000000000000000000000000000000
:1001000000000000000000000000000000000000EF
:100110000204180804200000000000000000000095
:1001200000000000000000000000000000000000CF
:10013000600400000000000000000000000000005B
:1001400000000000000000000000000000000000AF
:10015000000000000000000000000000000000009F
:10016000000000000000000000000000000000008F
:10017000000000000000000000000000000000007F
:10018000000000000000000000000000000000006F
:10019000000000000000000000000000000000005F
:1001A000000000000000000000000000000000004F
:1001B000000000000000000000000000000000003F
:1001C000000100000010000001000000000000001D
:1001D000000000000000000000000000000000001F
:1001E000000000000000000000000000000000000F
:1001F00000000000000000000000000000000000FF
:10020000D4D4D4D4D4D4D4D4D4D4D4D4D4D4D4D4AE
:10100000D10020400020006000000000000000002F
:1010100020100060001000600000000000000000D0
:101020000000006060B1000000000000EFBEADDE17
:10103000124880F3088812481249016000F036F81F
:10104000114812490022814201D004C0FBE7104838
:101050001049114A814202D008CA08C0FAE70F4875
:101060004FF47001026842EA01020260BFF34F8F41
:10107000BFF36F8F00F014F800DE00000040002086
:1010800008ED00E000400020005000201C880020F7
:10109000B84200204C44002060B1006088ED00E0C0
:1010A00041F2D10CC0F2000C6047D4D4204840F289
:1010B0009C41884219D040F24C418842CCBF1D4A25
:1010C0001D4A1E4B5360136823F0800313601C48B5
:1010D0001C49C1BF1C480A0C8264C1F30F01416462
:1010E000016C41F00401016402E0184815490160F7
:1010F0001748184A824205D01749814202D008CACF
:1011000008C0FAE71548164A824205D015498142BF
:1011100002D008CA08C0FAE71348144A824205D030
:101120001349814202D008CA08C0FAE7704700009C
:10113000240400000080034000C00B4020C528D9D3
:1011400000C00A40AAAAFAFF00400E4060004F44C7
:1011500000000000B822006060780000004000201D
:1011600000200060B842002000002020189B006092
:1011700048162020D4D4D4D4D4D4D4D4D4D4D4D4E1
:10118000D4D4D4D4D4D4D4D4D4D4D4D4D4D4D4D41F
:10119000D4D4D4D4D4D4D4D4D4D4D4D4D4D4D4D40F
:1011A000D4D4D4D4D4D4D4D4D4D4D4D4D4D4D4D4FF
:1011B000D4D4D4D4D4D4D4D4D4D4D4D4D4D4D4D4EF
:102000000040002031100060C359000059780000E2
:10201000C3590000C3590000C3590000000000006C
:10202000000000000000000000000000C359000094
:10203000C359000000000000C35900000100000067
:10204000C3590000C3590000C3590000C359000020
:10205000C3590000C3590000C3590000C359000010
:10206000C3590000C3590000C3590000C359000000
:10207000C3590000C3590000C3590000C3590000F0
:10208000C359000000000000000000000000000034
:10209000C3590000C3590000C3590000C3590000D0
:1020A000C3590000C3590000C3590000C3590000C0
:1020B000C3590000C3590000C3590000C3590000B0
:1020C000C3590000C3590000C3590000C3590000A0
:1020D000C3590000C3590000C3590000C359000090
:1020E000C3590000C3590000C3590000C359000080
:1020F000C3590000C3590000C3590000C359000070
:10210000C3590000C3590000C3590000C35900005F
:1021100000000000C359000000000000C359000087
:10212000C3590000C3590000C3590000C35900003F
:10213000C3590000C359000000000000C35900004B
:10214000C3590000C3590000C3590000C35900001F
:10215000C3590000C3590000000000000000000047
:10216000C3590000C3590000C3590000C3590000FF
:10217000C3590000C3590000C3590000C3590000EF
:10218000C3590000C3590000C3590000C3590000DF
:10219000C3590000C3590000C3590000C3590000CF
:1021A000C3590000C3590000C3590000C3590000BF
:1021B000C3590000C3590000C3590000C3590000AF
:1021C000C3590000C3590000C359000000000000BB
:1021D000C3590000C3590000C3590000C35900008F
:1021E000C3590000C3590000C3590000C35900007F
:1021F000C3590000C3590000C3590000C35900006F
:10220000C3590000D1000000C3590000C3590000A9
:10221000C3590000C3590000C3590000C35900004E
:10222000C3590000C3590000C3590000C35900003E
:10223000C3590000C3590000C3590000000000004A
:1022400000000000C3590000C3590000C35900003A
:10225000C3590000C3590000C3590000C35900000E
:10226000C3590000C3590000C3590000C3590000FE
:10227000C3590000C3590000C3590000C3590000EE
:10228000C3590000C3590000C3590000C3590000DE
:10229000C3590000C3590000C3590000C3590000CE
:1022A000C3590000C3590000C359000000000000DA
:0822B000C3590000C3590000EE
:1022B800F0B503AF2DE900074EF21000CEF2000092
:1022C8000068C0030ED548F60400BFF35F8FC2F262
:1022D800000050E8001F013140E80012002AF8D140
:1022E800BFF35F8F05F032FF48F608080446C2F2D4
:1022F8000008BFF35F8F07E071685046884705F014
:1023080025FF0446BFF35F8FD8F800508DB3D5F88A
:10231800089005F0EFFEA968401AB0F1FF3F6FEA98
:1023280000014FEAD171297316DD2869C8F8000049
:10233800D5E90010096888470646287B20468A4662
:1023480005F00AFF002ED7D105F0D4FEA0EB090056
:10235800B0F1FF3FD3DC09E0204605F0FDFE05F0B3
:10236800C9FEA0EB0900B0F1FF3FC8DCBDE80007DB
:10237800F0BD2046BDE80007BDE8F04005F0ECBE22
:1023880080B56F4641F25060C2F2200001F085FE30
:10239800002080F3118880BDF0B503AF2DE9000F50
:1023A800ADF2CC6D0BAC204603F0A6FA0DF59F6597
:1023B80021464FF4E072284607F02EF905F1340063
:1023C80005F1380105F1540202F055FFDDF8C005AA
:1023D80005F0F0FCDDF820060022016841F001015B
:1023E8000160DDF82016086820F002000860DDF8BA
:1023F800B805C1F80821C1F81821C1F82821C1F889
:102408003821016821F001010160016841F40041AF
:1024180001600168090409D50168090444BF01681D
:102428005FEA014102D501680904F2D43F218160C5
:10243800016821F001010160DDF8BC05016821F0A7
:1024480001010160016841F400410160016809046B
:1024580009D50168090444BF01685FEA014102D552
:1024680001680904F2D43F2140F2634281600168A7
:1024780021F001010160DDF8F814886C40F00100DA
:102488008864486C10434864486C012262F38300F6
:102498004864486C20F080004864886C40F0200054
:1024A8008864486C40F440404864486C40F4447088
:1024B8004864886C40F080008864886D000709D003
:1024C800886D00071CBF886D5FEA007002D0886DB8
:1024D8000007F2D1886C40F020008864486C20F432
:1024E800404048644A6CDDF8FC0422F4447202F56A
:1024F80088724A64816C40F2634241F00101816450
:10250800416C11434164416C012262F383014164CF
:10251800416C21F080014164816C41F020018164AB
:10252800416C41F440414164416C41F4447141645F
:10253800816C41F080018164816D090709D0816D4A
:1025480009071CBF816D5FEA017102D0816D09071F
:10255800F2D1816C022241F020018164416C21F4A6
:1025680040414164416C21F4447101F58871416432
:10257800DDF87406016841F480310160016841F0BA
:10258800400101602221C0F20F01416040F2685110
:10259800C0F20C11016240F29511C0F2B201416221
:1025A800DC21C0F27A0181627D21C0F25801C1624A
:1025B8004B21C0F2400101632F21C0F22E0141637B
:1025C800816346F62011C16040F6A31181604FF483
:1025D800C841C1614FF4C861816140F6C411C0F6B9
:1025E800804101613F214161016862F3010101609D
:1025F80001684FF4805221F480310160C06FDDF82A
:102608006016A7F1300005F055FB7CA8DDF85415DD
:10261800DDF8582500F58070DDF89C55DDF87C461E
:10262800DDF88886DDF8906605F07CFBDDF8280685
:1026380005F022FBDDF82C0605F01EFBDDF8300660
:1026480005F01AFBDDF8340605F016FB7BA87B9530
:1026580003F023F98146002047F8280C042047F8A6
:102668002C0C032047F8300C45F20400C2F200009D
:102678008B4600F212400122BFF35F8FD0E84F1F54
:10268800C0E8432F002BF9D10029BFF35F8F40F03A
:102698009B8345F204054FF48061C2F20005284689
:1026A80007F008F805F052FDA7F130010A90284616
:1026B80002F03CFC002840F0848348F2045A0121CF
:1026C800C2F2000A0AF53970D0E84F2F002A40F00C
:1026D8006B83C0E8421F002AF6D145F21848012151
:1026E800C2F2000808F14800BFF35F8FD0E84F2F0F
:1026F800002A40F05983C0E8421F002AF6D146F26A
:10270800000041F23811CDF824B0C2F200000144B3
:10271800BFF35F8FBFF35F8F51E8002F42F0004394
:1027280041E80035002DF7D10DF59F6B002ABFF366
:102738005F8F00F15D8348F2000C0125C2F2000CA6
:102748000CF5A061BFF35F8FD1E84F3FC1E8425F4E
:10275800002AF9D1002BBFF35F8F40F0FC824FF0C5
:1027680000427263B2634FF08042B263002232606B
:102778000222C4F84021D4F8402192070CD5D4F89D
:102788004021920744BFD4F840215FEA827203D502
:10279800D4F840219207EED400230A22C4F840312D
:1027A800C4F8A821D4F8842122F08072C4F88421C6
:1027B800D4F84421C4F844210122C4F84831C4F8AB
:1027C8005801879141F238118DF8242201447F90F5
:1027D80000F5865200F5805085910621CDF818C283
:1027E800CDE980107CA858C07CAC84912046CDE906
:1027F80082120121ADF8203204F003FC9DF8241266
:10280800201DCDF82090012939D17C99002940F06C
:10281800AD827D994FF0FF327C92D1F8842022F06E
:102828000042C1F884204FF08072C1F84421D1F8E9
:10283800482142F08072C1F84821D1F8842042F042
:102848008072C1F884200021CDF8FC040DF59F604A
:10285800CDF8F8144FF47A6103F0BFFADDF8FC14F0
:102868008422DDF8F8040968002818BF8C228858EB
:1028780040F0804088507C9801307C903DE0EFF338
:10288800108472B67C99002940F070827D994FF0CF
:10289800FF327C92D1F8842022F00042C1F88420D3
:1028A8004FF08072C1F84421D1F8482142F080727B
:1028B800C1F84821D1F8842042F08072C1F8842000
:1028C8000021CDF8FC040DF59F60CDF8F8144FF405
:1028D8007A6103F082FADDF8FC148422DDF8F8044A
:1028E8000968002818BF8C22885840F0804088501A
:1028F8007C9801307C9084F310887CA859464FF06E
:10290800000C08F10C096CC86CC17CC87CC190E84B
:102918007C0004207CC15A46494688F80500C8F85E
:1029280000C039CA39C179CA79C192E87900002250
:1029380079C14FF0FF300821C8F80800012088F855
:102948000400FF20CDE902100620009048468021AF
:102958008023C8F844C004F085FD0C46D8F8081058
:10296800C00701F10101C8F8081040F04C82D8F8FE
:102978000000002840F0008298F80450002905F172
:10298800010088F8040040F0E0814FF0FF304FF478
:102998000071C8F808000020CDE902100520009059
:1029A800484600210022002304F05CFD0E46D8F8BA
:1029B8000810C00701F10101C8F8081040F02A8288
:1029C800002940F0C2814FF0FF304FF40071C8F881
:1029D80008000020CDE9021005200090484680211B
:1029E8000022802304F03EFDD8F80820C00702F139
:1029F8000102C8F8082040F01082002A40F0A581A2
:102A08004FF0FF30CDE90516C8F808000020402136
:102A18000122CDE90210032000904846002100233E
:102A280007955E4604F01EFD0D46D8F80810C0074D
:102A380001F10101C8F8081040F00282002940F0B5
:102A480084814FF0FF304021C8F808000020CDE90C
:102A5800021003200090484680210122802304941C
:102A680004F000FD0C46D8F80810C00701F1010178
:102A7800C8F8081040F0EB81D8F80000002840F0B2
:102A880081814FF0FF300029C8F8000040F08081B4
:102A9800C8F80800484604F0BDFCD8F80800013022
:102AA800C8F80800C0F07A814FF0FF308021C8F8DC
:102AB8000800F01CBFF35F8FC8F84490BFF35F8F26
:102AC80006F0F1FB4846812104F030FA484601211E
:102AD80004F02CFA4846822104F028FA48460221DC
:102AE80004F024FA4846832104F020FA48460321DA
:102AF80004F01CFA4846842104F018FA48460421D8
:102B080004F014FA4846852104F010FA48460521D5
:102B180004F00CFA4846862104F008FA48460621D3
:102B280004F004FA4846872104F000FA48460721D1
:102B380004F0FCF940F6B4100DF5F87BC2F2200061
:102B480000F11C010BF102004FF4D27206F013FCE5
:102B58004FF440708AF81E40AAF81F000024AAF813
:102B680013000AF121008AF8125008F144054FF0C9
:102B7800400831468322AAF81C80CAF81850AAF8DF
:102B88001080CAF80C50AAF8004006F0F4FB40F692
:102B9800743140F20940AAF8CC000920C2F22001A1
:102BA8004FF4D372CAE92F100AF1CE005946CAF879
:102BB800C440CAE92B44CAF8B440CAF8A44006F095
:102BC800DAFB45F204003221C2F20000CAE9A11979
:102BD800CAF8DC0245F624010798C2F2DD718AF8CA
:102BE800D90205988AF8D2024FF4A060AAF8D30255
:102BF800AAF8C70206988AF8C6024FF40070AAF825
:102C0800D002AAF8C40240F2FF60AAF8BB020498F6
:102C18008AF8BA020820AAF8B802AAF898024FF46B
:102C28001650CAF894024FF07F40CAF88C0202206E
:102C38008AF880021020C0F21020CAF8CC52CAF8D4
:102C48007C020A98CAF8C052CAF8B45201258AF818
:102C5800E042AAF8DA428AF8D842CAF8AC42CAF87E
:102C6800A0428AF89A428AF890428AF88382AAF89F
:102C78008142CAE99D5105F06FFA4EF21000CEF27A
:102C88000000016821F001010160016841F00401C0
:102C9800016042F2BF71C0F209014160016841F070
:102CA80002010160016841F00101016048F6080075
:102CB800BFF35F8FC2F20000057145F20000BFF359
:102CC8005F8FC2F20000006800F17401D1E84F2F55
:102CD80052B9BFF35F8FDDE90836C1E8425FBAB188
:102CE800D1E84F2F002AF8D040F64C5040F63C531C
:102CF800C2F22000BFF32F8F009040F67D30A7F17D
:102D08001D02C2F22000C2F220032B2105F052FE60
:102D18000021BFF35F8F80F8701041F24861C2F262
:102D2800200101220160BFF35F8F80F8752041F216
:102D38005060C1E90036C2F22000C0F800A062B6B7
:102D48000DF2CC6DBDE8000FF0BD40F69410C2F254
:102D5800200005F0EEFD40F6241040F68412C2F281
:102D68002000C2F22002202105F007FE40F6A41040
:102D7800C2F2200005F0DDFD40F6C040C2F220009E
:102D880005F0D7FD40F6B040C2F2200005F0D1FDB5
:102D980040F6A040C2F2200005F0CBFD40F690407E
:102DA800C2F2200005F0C5FD40F6F04040F62C5276
:102DB800C2F22000C2F220027921BFF32F8F05F062
:102DC80031FE0A9805F0C8F940F66C5040F65C539D
:102DD800C2F220007CAA009040F67D30C2F22000AA
:102DE800C2F220032B217E96CDE97C4805F0E2FD56
:102DF80040F2000040F6D402C2F22000C2F22002E3
:102E08001F2105F0BAFD40F680408DF8F041C2F26E
:102E1800200008E08DF8F06101E08DF8F01140F62F
:102E28007040C2F2200040F65043009040F66040E7
:102E38007CAAC2F22000C2F220030F2105F0BAFDDD
:102E480040F6E0408DF8F051C2F2200005E040F66F
:102E5800D0408DF8F041C2F2200040F65043009077
:102E680040F6E4007CAAC2F22000C2F2200320212E
:102E780005F0A0FD80B56F4690B017E0686A046859
:102E8800206800284ED041F27840C2F22000C16884
:102E9800032085F8700085F86C0085F8680085F8CF
:102EA800650041F2B700C0F2000088474FF0000803
:102EB80045F20000C2F20000056895F87400002889
:102EC800F6D005F17500D0E84F1F012903D1C0E8FD
:102ED800418F19B1F7E7BFF32F8FE9E7BFF35F8F92
:102EE80095F87000D0B1A94619F86C0F002856D093
:102EF800032840F0F981AA461AF8680F002850D034
:102F0800032840F0F781AB461BF8650FABF1450885
:102F1800002857D0032800F0AF80F1E12968C5E9FF
:102F280001185DE041F27840C2F22000016841F2E8
:102F3800B700C0F200008847824620688846366895
:102F480000281EBFC168606888470020C4E9018660
:102F580020612073AE6AC4F800A005F0F7F8BFF34B
:102F68005F8F316809B3A2688B68D31A1CD40B69C8
:102F780083B39E68961B1E462BD4196931B38E689D
:102F8800961B09D40B692BB39E68961B20D419692C
:102F9800E1B18E68961BEAD50E46194619E0EC6831
:102FA8002EE0D5E9046434E02161346005F0D4F8FA
:102FB800E86A4FF0806104604EF60450CEF20000DB
:102FC800016060E7A96B00232E6E37E0194601E027
:102FD8001E4626610C6105F0BFF8E86A046052E7F6
:102FE800D1E90001012201F01F01A9464FF4FA744A
:102FF80002FA01F1C0F88C1009F86C8F49F8604C9E
:10300800AA4648F608060AF8688FC2F200064AE996
:10301800166405F06FF8AB4601460BF8658F43461A
:103028002218002C4BF8056C18BF511C4BF82D1CAE
:10303800ABF145084BF84D0C4BF8491C284640F8B5
:103048003C1F80F828303179002900F04281294658
:10305800012241F8403FA1F1200C81F824200A46C2
:1030680042F81C3F01F118038CE8490041E90526A4
:1030780041F80C2CC1E9051105F03CF8D8F80060BE
:103088003168401AB0F1FF3F7FF7F8AE686D01680C
:1030980051B1007B4FF00008002818BF85F8648004
:1030A80095F8640078BB56E04FF00008D5E90C406D
:1030B80085F86480066805F049F8BFF35F8F2168DA
:1030C800E1B10A698E4201D1226017E0B2B113461C
:1030D800964211D0116989B18E4209D00A696AB144
:1030E800964208D0116949B18E4201D00A69EDE7CC
:1030F8000B46114600E013461A690A6105F02CF8E0
:1031080095F8640038B3D5E90C40066805F01EF858
:10311800BFF35F8F2168E1B10A698E4201D1226055
:1031280017E0B2B11346964211D0116989B18E42A7
:1031380009D00A696AB1964208D0116949B18E422C
:1031480001D00A69EDE70B46114600E013461A69FB
:103158000A6105F001F8286C85F8648000281EBF14
:10316800C168686C884701208BF800008AF8000065
:1031780089F8000048F61400C2F20000006802282E
:103188002AD946F6A9501121C0F2000040F63C4267
:10319800019005F10800009068460E9040F2132057
:1031A800C2F220000C910D9003200A900B20099088
:1031B80040F24810C2F22000CDE9061808903B20E2
:1031C800039001200290781E02A9C2F220020B92FD
:1031D800CDE9048205F0C6F82C4646F6B75154F8F6
:1031E800080FCBF2DB6144F62512C2F2924241434A
:1031F800914230D248F61401C2F20001096802294E
:1032080029D346F6A95040F63C41C0F200000222FC
:10321800CDE9004068460E9040F21C70C2F22000D2
:10322800C2F220010D9011200C90CDE906083D2036
:103238000A920B2203900120099240F24812029050
:10324800781E0B91C2F22002CDE9048102A90892EE
:1032580005F088F8206843F2A77146F22C42CEF6B2
:10326800BD11C0F62132414391422ED848F61401CF
:10327800C2F20001096841B346F6A9501121C0F213
:1032880000000B23CDE9004068460E9040F24850FC
:10329800C2F220000C910D900120CDE906184021C2
:1032A80040F63C42099340F24813CDE902010A90E6
:1032B800781E02A9C2F22002C2F220030B920893E0
:1032C800CDE9048205F04EF8206801306968A860ED
:1032D80086E640F6A83040F6FC32C2F22000C2F280
:1032E8002002A32105F09EFB40F62C40C2F22000EC
:1032F80005F06AFE40F61C40C2F2200005F064FEAC
:1033080040F60C40C2F2200005F05EFE80B56F4624
:10331800007840F604120B4640F64861C2F22001DC
:10332800C2F2200251F8201052F820201846BDE8B9
:10333800804005F070BA80B56F46084640F6FA51ED
:10334800C2F220011222BDE8804005F064BA80B5BF
:103358006F46084640F60C61C2F220010222BDE821
:10336800804005F06FB980B56F4645F20000012135
:10337800C2F200000068BFF35F8F80F8751080BD4F
:1033880080B56F469EB048F610000121C2F20000D9
:1033980072B601704EF27140CEF20000F021017059
:1033A8004EF20C10CEF200004FF400310160002004
:1033B800ADF8740045F20000C2F2000069460160F1
:1033C80048F61C0044F20001C2F20000C2F20001FB
:1033D800814203D9EFF30881814203D9FEF7DCFF6C
:1033E800FFF748FD40F60E6040F63862C2F2200052
:1033F800C2F22002532105F015FBF0B503AF2DE909
:10340800000F81B0146880460122BFF35F8F04F279
:103418001146D6E84F0FC6E8432F002BF9D1BFF36A
:103428005F8F20B1012001B0BDE8000FF0BDD4F8D6
:103438000004BFF35F8FD4F80424BFF35F8F90427A
:1034480004D2C34312EB030A0BD177E0B0F5806FC7
:1034580005D1012A72D9A2F1010A002001E0C0F5C4
:10346800806AD146514538BF89468B4609EB000131
:103478002044BFF35F8FC4F80C1441464A4605F058
:103488007AFF94F8110404F20C45BFF35F8F58B328
:10349800D4F80004BFF35F8FBFF35F8F55E8001FB8
:1034A80045E80012002AF9D1BFF35F8FB0F5806FAD
:1034B800D4F80824BFF35F8FD4F80C14BFF35F8FE0
:1034C80001D0814203D3914205D94FF48060BFF304
:1034D8005F8FC4F80804BFF35F8FC4F8001400209E
:1034E800BFF35F8F84F81104D3456BD908EB09014A
:1034F800ABEB090C0123BFF35F8FD6E84F2FC6E86B
:10350800403F0028F9D1002ABFF35F8F7FF48AAFCC
:10351800D4F80034BFF35F8FD4F80424BFF35F8F6F
:10352800934203D2D843121813D107E0B3F5806F42
:103538000DD1012A02D9013A00230AE00020002116
:10354800BFF35F8F317001B0BDE8000FF0BDC3F568
:103558008062944538BF6246D018BFF35F8FC4F8C5
:103568000C04E01805F007FF94F81104BFF35F8F0F
:1035780040B3D4F80004BFF35F8FBFF35F8F55E803
:10358800001F45E80012002AF9D1BFF35F8FB0F59C
:10359800806FD4F80824BFF35F8FD4F80C14BFF3FE
:1035A8005F8F01D0814203D3914205D94FF48060E7
:1035B800BFF35F8FC4F80804FF20BFF35F8FC4F820
:1035C8000014BCE7FF2001B0BDE8000FF0BD80B5D6
:1035D8006F4690F83420012A10D10268002A40F082
:1035E800AB8042680B684FF0FF310160D2F844119C
:1035F800012B17D1890123D48C2116E0EFF3108C0D
:1036080072B60368002B40F097800A684FF0FF33CA
:1036180041680360012AD1F844310AD19A012BD4B8
:103628008C2309E0C90143D484215158C943C90FE7
:103638005AE0DA015DD48423C958C943C90F74E03C
:103648004FF00071C2F84411D2F844319B014AD5B9
:10365800C2F84411D2F844319B0142BFC2F8441168
:10366800D2F844315FEA83133DD5C2F84411D2F849
:1036780044319B01E6D436E04FF00073C1F8443181
:10368800D1F8442192014FD5C1F84431D1F84421F1
:10369800920142BFC1F84431D1F844215FEA821255
:1036A80042D5C1F84431D1F844219201E6D43BE037
:1036B8004FF08071C2F84411D2F84431DB0112D5C1
:1036C800C2F84411D2F84431DB0142BFC2F84411B8
:1036D800D2F844315FEAC31305D5C2F84411D2F8D1
:1036E8004431DB01E6D40121026801320260084658
:1036F80080BD4FF08073C1F84431D1F84421D20124
:1037080012D5C1F84431D1F84421D20142BFC1F8E1
:103718004431D1F844215FEAC21205D5C1F84431D9
:10372800D1F84421D201E6D40121026801320260B5
:1037380008468CF3108880BD40F6A860C2F22000CD
:1037480005F0F7F8F0B503AF4DF8048D8268012A4B
:103758003ED1C3684269934260D20569D0F818C067
:10376800EC5C0134EC540CF1020494422CD80CF5B6
:1037780080739646934238BF9E46A34246D3AEEB2B
:103788000403052B20D38B790E7A91F807E091F882
:103798000980022E89882B5505EB040399704FEA9E
:1037A8001121D9704FF0010183F804E088BFF11EA0
:1037B8003601CCB246EA8806012C08BF711C597044
:1037C8000CF10703934207D902205DF8048BF0BD82
:1037D80007205DF8048BF0BD944528D2072105F831
:1037E8000C100CF1010191423FBF05226A5483611C
:1037F800FF203CBF5DF8048BF0BD40F678630846B7
:10380800C2F2200311461A4605F0F2F840F6886322
:103818002046C2F22003714605F087FB40F6986403
:103828001846C2F220041146224605F0E1F840F697
:1038380068636046C2F2200311461A4605F0D8F8BC
:10384800F0B503AF2DE9000786B001EBC2061D46AF
:103858009146884682467AB14446D4E900012A4610
:103868004B6A51469847BAF8000040F00200062813
:1038780027D10834B442F0D1687A30B3BAF80000DE
:1038880040F0020006281CD1DAF80C000921AAF839
:1038980000100068BFF35F8F002800F0B3809AF82B
:1038A8001210012203F0A2FCDAF818000068BFF336
:1038B8005F8F002800F0A6809AF81E10012203F0FE
:1038C80095FC06B0BDE80007F0BD297AA879022961
:1038D80029D0012913D00029D0D1002855D0062895
:1038E80047D00828CAD19AF88E0201210591A7F17C
:1038F800220102380491B0FA80F0400968E018B358
:103908000A28BBD16D88FF2D4ED9BAF8000040F0C7
:1039180002000628D5D1504606B0BDE80007BDE82C
:10392800F04001F0ACB90028A8D16988DAF888021B
:1039380001F08F0103F0B2FBBAF800100429C0D1DE
:10394800AAF82400002006E0BAF800000428B8D13C
:103958000020AAF82400BAF806100122AAF80020CC
:10396800022928BF0221CAE92B01504601F0C3F8F9
:1039780034E069884A4628885346CDE900010AF1AF
:10398800B400414600F03CF928E09AF88C02022283
:103998009AF88D120592A7F1220240000492C0B253
:1039A800084327F8220C15E0B9F1000F0AD0D8E92E
:1039B80000014A6B29469047C00714D108F108084E
:1039C800B045F4D101200590A7F122000490002011
:1039D80007F8220C04A9504600F0F3FEC043000685
:1039E8007FF46FAF4AE7012007F8221C0590A7F182
:1039F800220004A90490504600F0E3FE06B0BDE89A
:103A08000007F0BD40F6E46040F60872C2F22000FC
:103A1800C2F22002222104F0FFFF0000F0B503AF3C
:103A28002DE9000F81B001EBC2061D4691468A467A
:103A3800834682B15446D4E900012A460B6A5946A6
:103A48009847BBF8000040F00200062840F0D480F8
:103A58000834B442EFD1687A88B3BBF8000040F06C
:103A68000200062840F0C880DBF80C000921ABF8FA
:103A780000100068BFF35F8FB0B19BF812100122ED
:103A880003F0B4FBDBF818000068BFF35F8F002871
:103A98001FBF9BF81E10012201B0BDE8000F1CBF1C
:103AA800BDE8F04003F0A2BB40F6E46040F60872BF
:103AB800C2F22000C2F22002222104F0ADFF297ACE
:103AC800A879B5F80080B1B3012911D00229C4D171
:103AD800012844D0032808BFB8F1000FBDD1698878
:103AE8000122DBF8880201F08F0103F07FFB7CE004
:103AF8000B28B2D16D8845EA0800FF283CD8B9F1F7
:103B0800000F0BD0DAE9000142468B6B2946984733
:103B180000285CD10AF1080AB245F3D1B8F1000FC8
:103B280063D0BBF8000040F00200062864D1584674
:103B380001F0A5F891E7013808283FF68EAFDFE8D5
:103B480000F006053505290505053D0085E7B8F1AE
:103B5800010F7FF482AF00208BF88C0245E0B8F1AA
:103B6800000F7FF47AAF69880022DBF8880201F041
:103B78008F0103F03BFB38E0BBF8000040F0020087
:103B8800062839D1584601B0BDE8000FBDE8F0401D
:103B980001F075B8A8F1010080B27F28BFF45DAFCD
:103BA800DBF88802414603F042FB1BE0B8F1010F45
:103BB8007FF453AF01208BF88C0216E0B8F1000FA8
:103BC8000DD0B8F1010F7FF448AF02200BE0584642
:103BD80001B0BDE8000FBDE8F04000F01CBE9BF846
:103BE8008E0210B101208BF88E02584600F013FEA9
:103BF800C04300063FF431AF01B0BDE8000FF0BD8F
:103C0800F0B503AF2DE900078AB0BD680E464FF046
:103C1800FF340190A9B204EB11210E2951D8DFE835
:103C280001F008420D5050505050505050505050D4
:103C38004B0001A9184600F073FDEDE0290669D094
:103C4800D7F80C905FFA85FCBCF1040F7AD2D0F853
:103C5800C0110022A1EBC1014FEA810E1EEB020642
:103C68002FD081181FFA89F50C8BAC4200F0BA806E
:103C780016F11C0425D08C8EAC4200F0B08016F1F1
:103C880038041ED0B1F85040AC4200F0AA8016F1BA
:103C9800540416D0B1F86C107032A942DED1104429
:103CA800A0F11C019EE001A802A902901846CDE9E6
:103CB800036200F006FCAFE0B0F8CA01B0F5007F7F
:103CC80023D1188840F00200062840F0B580D86853
:103CD800092119800068BFF35F8F002800F0B180C8
:103CE800997C01221C4603F081FAA0690068BFF3A1
:103CF8005F8F002800F0A580A17F012203F076FAEB
:103D0800FF200AB0BDE80007F0BD1846314600F0B4
:103D180061FB81E0D0F8C0110022CDE90822CDE98D
:103D280006221029CDE90422CDE902220A4628BF3D
:103D3800102200294DD002F0030C042913D24FF0B1
:103D4800000E31E09846002A6ED006EBC204D6E990
:103D580000014A464B6929469847002856D108363B
:103D6800A642F4D160E0910822F0030EC90000F1E8
:103D78005008A1EB92014FEA011902A9A1F1080428
:103D88000021451838F801A07031AE8E8945B5F884
:103D98006C202D8B24F8085F6680A4F804A0E280CC
:103DA800EFD1BCF1000F14D0CEEBCE01BCF1010F66
:103DB80000EB810002A9028B21F81E2009D001EB3B
:103DC8004E01828EBCF1020F4A801CBFB0F8500031
:103DD800888002A901AA184600F0EDFB1CE01C31FE
:103DE80000E038319846BCF1010F09D0BCF1020F50
:103DF80002D00422084606E001F108000C2202E085
:103E080001F110001422006870B18958CDE902014F
:103E180002A9404600F032FCC143090608BFFF2052
:103E28000AB0BDE80007F0BDB8F80000434640F00E
:103E3800020006283FF44BAF07200AB0BDE8000790
:103E4800F0BD40F6E46040F60872C2F22000C2F20B
:103E58002002222104F0E0FDF0B503AF2DE9000FA8
:103E68008FB0D0F88842064607A8884615462146EE
:103E780003F010FA96F88E22BDF81C10032A0FD111
:103E880000294FF0000018BF03290FD096F88F22A1
:103E9800FF2A00F0F780FF2086F88E2286F88F022E
:103EA8000020DFE801F00311320703000FB0BDE87E
:103EB800000FF0BD032086F88F2286F88E020020BE
:103EC8000FB0BDE8000FF0BD204603F073FA0020E4
:103ED8004FF47F41002D86F8900286F88C02A6F8F0
:103EE8008E123080E2D008EBC504A8F1080555F819
:103EF800080F69688969884705F10800A042F6D16A
:103F080000200FB0BDE8000FF0BDBDF82010BDF8CF
:103F18001E00BDF82220CDE90401084340EA020949
:103F280006925FEAC97049D00698C00713D1049871
:103F3800C0072CD00CA8314600F099FC9DF8390038
:103F4800FE2824D0DDE90C12BDF83800ADF82C00AD
:103F5800CDE9091203E009A8314600F03AFD9DF8C1
:103F68002D00FF2813D09DF82B00B8B1802823D14D
:103F7800DDE909010CABBDF82C20CDE90C01304678
:103F8800ADF8382041462A46FFF75AFC14E0059858
:103F9800C00711D0304600F013FE0DE0DDE909013D
:103FA8000CABBDF82C20CDE90C013046ADF838201B
:103FB80041462A46FFF732FD29F00109E800B9F128
:103FC800000FCDE90285019047D00398002854D00E
:103FD800DDE90110A0F108054FF0020B012600EB06
:103FE800010806982C461BEA000F0AD054F8080F5F
:103FF80061688A6A3146904704F108004045F5D166
:104008000EE004981BEA000F0AD02C4654F8080F5B
:104018006168CA6A3146904704F108004045F5D105
:1040280005981BEA000F0DD066F07F04AA465AF8DF
:10403800080FDAF804100A6B214690470AF10800C5
:104048004045F4D129EA0B095FEA094005D0701C04
:104058000F2E4FEA4B0B0646C3D3039868B1DDE930
:104068000110A0F10805441855F8080F6968C969D6
:10407800884705F10800A042F6D101200FB0BDE83D
:10408800000FF0BD40F6B86040F6D462C2F22000DE
:10409800C2F220021C2104F070FC80B56F46006853
:1040A800BDE8804000F010BE80B56F460068BDE8EE
:1040B800804004F0C7BF80B56F460A46D0E90001CA
:1040C800BDE8804005F093B8D0B502AF537A012B14
:1040D80007D1137A012B02BF90F8443054889C42D0
:1040E80000D0D0BD9379212B04BF9288072A28D00D
:1040F800088840F002000628F3D1C86809220A801F
:104108000068BFF35F8F88B18A7C0C461146012294
:1041180003F06CF8A0690068BFF35F8F00281FBF29
:10412800A17F0122BDE8D04003F060B840F6E4600A
:1041380040F60872C2F22000C2F22002222104F0E6
:104148006BFC0A88042A18BFD0BDCA88002390F8DF
:1041580004C0012490F805E0072AC1F8AC3083793F
:104168000068486208460C8081F8283081F829E008
:1041780081F82AC028BF0722C1F8B020BDE8D04086
:1041880000F0B9BCD0B502AF84B0537A012B07D187
:10419800137A012B02BF90F8443054889C4201D016
:1041A80004B0D0BD9379002B51D0202B0ED0222BF8
:1041B8002CD112780B8802F0010480F84640C2F333
:1041C8004002062B80F84720EAD143E0D1F8B0201E
:1041D800812A60D2062A19D991F8282091F8294015
:1041E80091F82AE0032A4B6AB1F800C003604FF047
:1041F800000380F804E028BF1A46052C827138BFF6
:104208002346BCF1060F4371CAD123E0088840F069
:1042180002000628C4D1C86809220A800068BFF3D2
:104228005F8F68B38A7C0C461146012202F0DEFFDC
:10423800A0690068BFF35F8F00281FBFA17F01221C
:1042480004B0BDE8D04018BF02F0D0BF18E008881D
:104258000628A5D188690368BFF35F8F83B18A7F79
:104268000020009002A80C461946012303F0B2F87A
:104278009DF80810002904BF0821218004B0D0BD92
:1042880040F6E46040F60872C2F22000C2F2200252
:10429800222104F0C1FB40F68C731146C2F22003C0
:1042A8000020802204F041FEF0B503AF2DE9000B99
:1042B80086B090F844608146002402258846084666
:1042C800314602220223CDE90054029403F0F4F9A6
:1042D800C143090603D006B0BDE8000BF0BDD9F80C
:1042E8000C00002299F808100223002818BF0120AA
:1042F800CDE90054CDE902014046314603F04DF9BD
:10430800C1430906E7D140F618724046C2F22002BE
:104318002421032303F02FFAC1430906DBD140F21D
:10432800CD324046C2F220022421022303F023FAB0
:10433800C1430906CFD10620A7F11E0207F81D6C5C
:10434800242199F84560032307F81E0C404607F816
:104358001C6C03F010FAC1430906BCD10120A7F177
:104368001B0227F81B0C40462421032307F8196C6D
:1043780003F001FAC1430906ADD109F12001404615
:10438800FFF7E0F9C1430906A5D1D9F818000022C2
:1043980099F814100A23002818BF0120CDE900223B
:1043A800CDE902014046314603F0F7F8C14309065A
:1043B80091D109F138014046FFF7C4F9C143090614
:1043C80089D109F12C014046FFF7BCF906B0BDE8D8
:1043D800000BF0BDF0B503AF2DE9000B8CB00C4617
:1043E800018804291AD1B0F8069080462430059037
:1043F80001A80B9009A80021154680220791069272
:104408008DF8201003910191099103F0C5FBC14378
:10441800090608D00CB0BDE8000BF0BD07200CB0B1
:10442800BDE8000BF0BD6DB104EBC50609ADD4E9DC
:1044380000010A6929469047C1430906EAD10834B0
:10444800B442F4D109A803F000FC079980291DD9CA
:10445800D8F80C000922A8F800200068BFF35F8F85
:1044680020B398F81210012202F0C0FED8F8180004
:104478000068BFF35F8FC8B198F81E10012202F0E0
:10448800B5FE02200CB0BDE8000BF0BD012340468C
:104498000022A8F80030494538BF8946C0E92B29D1
:1044A80000F029FB0CB0BDE8000BF0BD40F6E4605D
:1044B80040F60872C2F22000C2F22002222104F063
:1044C800ABFAF0B503AF2DE9000788B00288042ADB
:1044D8001AD1D1E9002580238C680021B0F8069014
:1044E8008046243004900691684605938DF81C1088
:1044F80002910091116802F0E7FFC143090608D054
:1045080008B0BDE80007F0BD072008B0BDE8000707
:10451800F0BD8CB105EBC4066C464FF0000AD5E936
:104528000001CA6821469047C1430906E8D1083509
:10453800CDF808A0B542F2D1684603F0ACF8069968
:1045480080291DD9D8F80C000922A8F80020006895
:10455800BFF35F8F20B398F81210012202F046FED5
:10456800D8F818000068BFF35F8FC8B198F81E101C
:10457800012202F03BFE022008B0BDE80007F0BDB2
:10458800012340460022A8F80030494538BF894633
:10459800C0E92B2900F0AFFA08B0BDE80007F0BD6C
:1045A80040F6E46040F60872C2F22000C2F220022F
:1045B800222104F031FAB0B502AF88B00446008871
:1045C80004281CD110688C46E588002180220691B9
:1045D800D0F8C001059204F1240204924300212B73
:1045E8008DF81C100291009133D26846032162466F
:1045F80003F0C1F8C143090604D008B0B0BD0720D4
:1046080008B0B0BD0698802816D9E0680921218035
:104618000068BFF35F8F30B3A17C012202F0E6FD92
:10462800A0690068BFF35F8FE8B1A17F012202F0A3
:10463800DDFD022008B0B0BD012200212280A84281
:1046480038BF05462046C4E92B1500F054FA08B0D7
:10465800B0BD40F61C740020C2F220041946202286
:10466800234604F062FC40F6E46040F60872C2F2A9
:104678002000C2F22002222104F0CEF9B0B502AF28
:1046880088B004460088042815D1D1E9001200201A
:10469800802306908DF81C000290009068460593D0
:1046A80004F12403E588049303F059F9C14309068A
:1046B80004D008B0B0BD072008B0B0BD0698802867
:1046C80016D9E068092121800068BFF35F8FE0B147
:1046D800A17C012202F08AFDA0690068BFF35F8F08
:1046E80098B1A17F012202F081FD022008B0B0BD7F
:1046F800012200212280A84238BF05462046C4E98D
:104708002B1500F0F8F908B0B0BD40F6E46040F6AB
:104718000872C2F22000C2F22002222104F07CF9C1
:10472800B0B502AF88B004460088042814D10968DF
:104738000020802206908DF81C00029000906846A8
:10474800059204F12402E588049203F060F8C1435D
:10475800090604D008B0B0BD072008B0B0BD06985F
:10476800802816D9E068092121800068BFF35F8F8F
:10477800E0B1A17C012202F039FDA0690068BFF315
:104788005F8F98B1A17F012202F030FD022008B0AE
:10479800B0BD012200212280A84238BF054620462C
:1047A800C4E92B1500F0A7F908B0B0BD40F6E460E5
:1047B80040F60872C2F22000C2F22002222104F060
:1047C8002BF9F0B503AF4DF804BD0288042A06D1D1
:1047D8004C68802C07D902205DF804BBF0BD072087
:1047E8005DF804BBF0BD096800F12402C6880546DF
:1047F8001046224604F0BFFD0020B44238BF2646CA
:10480800C5E92B060120288028465DF804BBBDE8D1
:10481800F04000F070B9D0B502AF84B00188062925
:1048280017D181690968BFF35F8FA9B10446827FF8
:1048380000200123009002A802F0CCFD9DF808009A
:1048480001280FBF9DF8090008202080FF2004B030
:10485800D0BD072004B0D0BD40F6E46040F6087231
:10486800C2F22000C2F22002222104F0D5F8F0B5ED
:1048780003AF4DF804BD86B0044608880D46411EB6
:10488800032929D3052827D0072840D1D5F8AC60BB
:10489800D5F806206889802ED5F80210ADF80C00EE
:1048A800CDE9011200F28480E8680168BFF35F8FE8
:1048B800002972D0C6F180000090A819AA7C00F1E6
:1048C800240304A802F056FD9DF81000002844D0E7
:1048D8009DF8110060BB4DE0E8680168BFF35F8F89
:1048E80000295AD0AA7C01A800260123009602F0CC
:1048F80041FD9DF8040040B19DF80500FE2161725C
:10490800207006B05DF804BBF0BD2E8032E0E86888
:104918000168BFF35F8F00293FD00020AA7C009078
:1049280001A8012302F026FD9DF804000028E3D128
:10493800E868092129800068BFF35F8F68B3A97C04
:10494800012202F053FCA8690068BFF35F8F20B30F
:10495800A97F012202F04AFC0CE005988119B142B6
:104968002FD381292DD2D5E92B120844C5F8AC00E4
:10497800904205D2FF20607206B05DF804BBF0BD1E
:10498800DDE901010623BDF80C202B802060616061
:10499800228106B05DF804BBF0BD40F6E46040F645
:1049A8000872C2F22000C2F22002222104F034F878
:1049B80040F64C733046C2F220038021802204F076
:1049C800B4FA40F63C733046C2F22003802204F069
:1049D800ACFAF0B503AF2DE9000F83B00446C86800
:1049E8000D460168BFF35F8F002971D08020AA7C33
:1049F800009005F1240301A802F0BCFC9DF8040016
:104A0800012836D0029981296DD2082931D1E86868
:104A180095F82410B5F82AB0D5F8268001F01F02C1
:104A280095F82590042A006828BF0422BFF35F8FF9
:104A380000284DD0C1F3411301F08006A97C42EA59
:104A4800032A002202F0D2FBCEB9BBF1000F2ED010
:104A5800BBF1800F0DD80020A5F80AA0C5E92B0BE3
:104A68006872072085F80890A5F806B0C5F8028096
:104A78002880FF20607203B0BDE8000FF0BD04205D
:104A8800A5F80AA06E7285F80890A5F806B0C5F8D2
:104A980002802880A4F808A0E67184F80690A4F89B
:104AA80004B0C4F8008003B0BDE8000FF0BD0620D4
:104AB800A4F808A028800020C5F8B000E07184F8A8
:104AC8000690A080C4F8008003B0BDE8000FF0BDD8
:104AD80040F6E46040F60872C2F22000C2F22002FA
:104AE800222103F099FF40F65C730020C2F22003F4
:104AF800802204F01AFAF0B503AF4DF804BD84B073
:104B08000446D0E92936D0F8AC00D4F8B010002B10
:104B1800A58B08BF8026091AA94238BF0D46291857
:104B280034D2B14232D8A1690968BFF35F8FA1B30B
:104B3800A27F002B009508BF04F12403034402A8B8
:104B480002F048FC9DF8080028B19DF8090004B05F
:104B58005DF804BBF0BD039AD4F8AC00811827D2E5
:104B6800B14225D8D4F8B000C4F8AC10814208D3BB
:104B78000020A18BC4F8A40003208A4208BF0220A9
:104B88002080FF2004B05DF804BBF0BD40F67C73C4
:104B98003246C2F2200304F0C8F940F6E46040F659
:104BA8000872C2F22000C2F22002222103F034FF70
:104BB80040F66C733246C2F2200304F0B6F90000E6
:104BC800B0B502AF84B001884B1E0021072B40D836
:104BD8000022DFE803F00423100D0D0D0D39FFF757
:104BE8008AFF0146C0B2B0F1FF020CBF1146012294
:104BF800104604B0B0BDC1680A68BFF35F8F9AB3AE
:104C0800817C054610460022002402F0EFFA0520B8
:104C1800214628800022104604B0B0BD8169096889
:104C2800BFF35F8F01B30446827F00200123009009
:104C380002A802F0CFFB9DF8080070B19DF809109A
:104C48000122104604B0B0BD01210280104604B014
:104C5800B0BD0022104604B0B0BD03200021208062
:104C68000022104604B0B0BD40F6E46040F6087279
:104C7800C2F22000C2F22002222103F0CDFED0B5FC
:104C880002AF0446C068092121800068BFF35F8F26
:104C980078B1A17C012202F0A9FAA0690068BFF3EB
:104CA8005F8F00281FBFA17F0122BDE8D04002F01E
:104CB8009DBA40F6E46040F60872C2F22000C2F2E3
:104CC8002002222103F0A8FEF0B503AF4DF8048DB1
:104CD80084B0044640F69C70C2F2200002A90390FA
:104CE80004F52570029020460122FFF7B5F8054625
:104CF8000021D4F88802029102A9FEF768FC94F812
:104D0800E01294F88E22022A1DD1002940F07C80FE
:104D18000646D4F8880202F0B1F9D4F8881291F85E
:104D28003400012829D10868002840F0F9804A6831
:104D38004FF0FF300860D2F84801C00130464BD42C
:104D480000220A605DE000293FD0D4F8880290F87C
:104D58003410012923D10168002940F0E18041681D
:104D68004FF0FF320260D1F8842022F00042C1F8EF
:104D7800842001680131016027E0EFF3108272B6E8
:104D88000868002840F0CC804B684FF0FF3008607E
:104D9800D3F84801C001304628D400232EE0EFF3B1
:104DA800108172B60268002A40F0BA8042684FF05B
:104DB800FF330360D2F8843023F00043C2F8843014
:104DC80002680132026081F31088002084F8E00252
:104DD80004B05DF8048BF0BDD2F8843043F0004392
:104DE800C2F884300A6801320A600AE0D3F88460A5
:104DF80046F00046C3F884600B6801330B6082F309
:104E08001088012184F8E012D4F8C0120968BFF3B1
:104E18005F8F002979D00543002094F8C62201232A
:104E2800009002A8012602F0A5FA002DD0D0D4F8EF
:104E3800DC02BFF35F8F00F58265D5E84F1FC5E838
:104E4800426F002AF9D10029BFF35F8FC0D1D0F893
:104E58000014BFF35F8FD0F80824BFF35F8FD0F83A
:104E6800043400F20446BFF35F8F934205D19942A0
:104E78003EBFBFF35F8F00233360994228BF0A46C5
:104E88009A423AD0D4F8CC120968BFF35F8FE1B3E5
:104E9800A2EB030894F8D222034402A84446B8F5CA
:104EA800007F28BF4FF40074009402F093FA9DF835
:104EB800080001280ED12878BFF35F8F00283FF43F
:104EC80087AFBFF35F8F56E8000F46E8000100295F
:104ED800F9D112E003982978BFF35F8F00293FF4D6
:104EE80077AF404538BF8046BFF35F8F56E8000F65
:104EF800404446E800010029F8D10020BFF35F8F45
:104F0800287004B05DF8048BF0BD40F6E46040F60C
:104F18000872C2F22000C2F22002222103F07CFDB6
:104F280040F6A860C2F2200003F003FDB0B502AF5E
:104F38000C46014648F2EC70D4E90132C2F2000096
:104F480000F1100C4FF0010EDCE84F5FCDB9CCE852
:104F580045EF002DF8D10025BFF35F8FC0E902515E
:104F680041F22401C2F22001C0E9003203F0B5F990
:104F7800002801BF216848F61402C2F2000211603D
:104F8800B0BD40F6D87041F21402C2F22000C2F25D
:104F980020027921BFF32F8F03F044FDF0B503AF52
:104FA8002DE9000F8BB0804648F61400D1F8209008
:104FB800C2F20000006881451FD8D8F804008A466C
:104FC800F8B1D8F8001000EB4000DAE909B50C1D7B
:104FD800860002E00C340C3E0FD02068A842F9D1BC
:104FE80054F8040C59462A4604F023F90028F1D154
:104FF8006068411C18BF814505D90BB0BDE8000F9A
:10500800F0BDDAE909B50AF12C00049041F6F9502F
:1050180041F23C01C0F2000040F29D220A9004A82F
:10502800099041F60760C0F2000005AB089002A89D
:10503800079046F2F500C0F20000C2F22001069087
:1050480001A80590C2F22002684603958DE8000B7E
:1050580003F0E9FB0BB0BDE8000FF0BD80B56F466B
:1050680080BDF0B503AF2DE9000B48F61402D1F866
:105078000080C2F200021268904503D90020BDE802
:10508800000BF0BD42681AB30068D1E90194061D0F
:1050980002EB4200850002E00C360C3DEED0306891
:1050A800A042F9D156F8040C4946224604F0C1F84A
:1050B8000028F1D170680021804500F10100B0FAA4
:1050C80080F098BF012140090843BDE8000BF0BDFE
:1050D8000120BDE8000BF0BD80B56F460246C068F0
:1050E8005FFA81FC20B1117A614504BF116980BD66
:1050F800107DD2E90631C0B26045184618BF0020BD
:10510800002B08BF184680BD80B56F460021A0F867
:1051180046108171082181804FF41651016080BDCD
:10512800F0B503AF4DF8048D15460E46046803F03C
:105138000DF88046A068B8B94FF0FF3004F10C02B2
:10514800A06030462946FEF758F90546A0680130A8
:10515800A060404603F000F8E843C0B2002818BF3A
:1051680001205DF8048BF0BD40F62C70C2F22000DF
:1051780003F0DFFB80B56F4680BD80B56F46002029
:1051880080BD80B56F46002080BD80B56F46FF208A
:1051980080BD80B56F4680BDF0B503AF4DF804BD46
:1051A80082B000228029019203D28DF804100124D4
:1051B80030E04FF6FE760B46C0F2FF368A0966F3FA
:1051C8009F13B1F5006F07D242F0C0018DF805308A
:1051D8008DF8041002241DE066F39F120D0B0024C5
:1051E800B4EB114F07D145F0E0018DF806308DF88A
:1051F800052003240CE06FF00F0444EA91410424D5
:1052080066F39F158DF807308DF806208DF8055048
:105218008DF80410066802F099FF0546B068C0B919
:105228004FF0FF3006F10C02B06001A82146FEF7EE
:10523800E4F80446B0680130B060284602F08CFFFC
:10524800E043C0B2002818BF012002B05DF804BBDB
:10525800F0BD40F62C70C2F2200003F06AFB80B566
:105268006F4613460A4641F23C01C2F22001BDE8EE
:10527800804003F0D8BAF0B503AF2DE9000B84B035
:10528800044600688846416D21F0030141651046D7
:1052980040F2E24102F091FDD8F800504FF400507E
:1052A8004FF4805140224FF4803300E069612E6949
:1052B800B6040ED52E69F604F8D52E69B6F1FF3F6F
:1052C800F5DC2E69F60306D42E69760605D46A61E4
:1052D800EDE76861EBE7AB61E9E740F66416214664
:1052E800C2F220060022304602F0D0FCB01C214653
:1052F800002202F0CBFC301D2146002202F0C6FC41
:10530800B01D2146002202F0C1FC06F1080021462A
:10531800002202F0BBFC06F10A002146002202F03E
:10532800B5FC06F10C002146002202F0AFFC06F1A4
:105338000E002146002202F0A9FC06F110002146C9
:10534800002202F0A3FC06F112002146002202F01E
:105358009DFC06F114002146002202F097FC06F19C
:1053680016002146002202F091FC06F118002146A1
:10537800002202F08BFC06F11A002146002202F0FE
:1053880085FC06F11C002146002202F07FFC06F194
:105398001E002146002202F079FC2068416989013B
:1053A8000FD5416921F000714161816C41B1816C77
:1053B80000291CBF816C002902D0816C0029F4D11E
:1053C80020684169012221F06051416120688169AA
:1053D80062F30D318161816C41B1816C00291CBF80
:1053E800816C002902D0816C0029F4D120684169C0
:1053F80041F000714161816C41B1816C00291CBF91
:10540800816C002902D0816C0029F4D14FF48050BE
:105418002860642028604FF40050686028680028DD
:1054280009D4286800285CBF2868002803D42868A5
:10543800B0F1FF3FF2DC20680122016962F302014A
:105448000161816C41B1816C00291CBF816C00290C
:1054580002D0816C0029F4D12068416921F4E0511F
:105468004161816C41B1816C00291CBF816C0029AC
:1054780002D0816C0029F4D12068816941F440216F
:1054880081612068416921F000714161816C41B1FD
:10549800816C00291CBF816C002902D0816C002915
:1054A800F4D1206841F25406C2F220060022416974
:1054B80041F4407141613046214602F0E7FBB01CDF
:1054C8002146002202F0E2FB301D2146002202F0B4
:1054D800DDFBB01D2146002202F0D8FB2068022522
:1054E80041F25C060022C2F22006816B65F3D841C6
:1054F80081632068816B41F48021816330462146B5
:1055080002F0C4FBB01C2146002202F0BFFB301D94
:105518002146002202F0BAFBB01D2146002202F00B
:10552800B5FB206841F264064FF00309C2F2200679
:105538000022816965F3051181612068816969F339
:105548009C6181613046214602F0A0FBB01C2146D7
:10555800002202F09BFB301D2146002202F096FB40
:10556800B01D2146002202F091FB06F108002146F9
:10557800002202F08BFB2068172240F6AE56C2F2DA
:105588002006C16962F30501C16120680022C16972
:1055980041F04001C1613046214602F077FBB01C62
:1055A8002146002202F072FB301D2146002202F043
:1055B8006DFBB01D2146002202F068FB06F10800D1
:1055C8002146002202F062FB06F10A002146002271
:1055D80002F05CFB06F10C002146002202F056FBAB
:1055E80006F10E002146002202F050FB2068012639
:1055F80040F62C1242F21073416A41F040014162B8
:105608002068416A65F30501416240461C21009605
:1056180002F002FC40F60510214627F81E0CA7F1FF
:105628001E00002202F032FB20680E22C16965F3D9
:105638008B21C1612068816A69F3881181622068C1
:10564800816A62F3050181624FF483702146ADF8E7
:105658000C0003A8002202F019FB20680022C1698F
:1056680021F48031C1612068416A66F3CD2141622D
:1056780040F20710214627F81A0CA7F11A0002F089
:1056880005FB20684FF6FF42C1F6FF7241F26E0536
:10569800C2F2200581691140032241F0004141F422
:1056A800407181612846214602F0F0FAA81C214683
:1056B800032202F0EBFA281D2146032202F0E6FA43
:1056C800A81D2146032202F0E1FA05F1080021464F
:1056D800032202F0DBFA05F10A002146032202F058
:1056E800D5FA05F10C002146032202F0CFFA05F1A4
:1056F8000E002146032202F0C9FA05F110002146E6
:10570800032202F0C3FA05F112002146032202F037
:10571800BDFA05F114002146032202F0B7FA05F19B
:1057280016002146032202F0B1FA05F118002146BD
:10573800032202F0ABFA05F11A002146032202F017
:10574800A5FA05F11C002146032202F09FFA05F193
:105758001E002146032202F099FA05F12000214695
:10576800032202F093FA05F122002146032202F0F7
:105778008DFA05F124002146032202F087FA05F18B
:1057880026002146032202F081FA05F1280021466D
:10579800032202F07BFA05F12A002146032202F0D7
:1057A80075FA05F12C002146032202F06FFA05F183
:1057B8002E002146032202F069FA05F13000214645
:1057C800032202F063FA05F132002146032202F0B7
:1057D8005DFA05F134002146032202F057FA05F17B
:1057E80036002146032202F051FA05F1380021461D
:1057F800032202F04BFA05F13A002146032202F097
:1058080045FA05F13C002146032202F03FFA05F172
:105818003E002146032202F039FA05F140002146F4
:10582800032202F033FA05F142002146032202F076
:105838002DFA05F144002146032202F027FA05F16A
:1058480046002146032202F021FA05F148002146CC
:10585800032202F01BFA05F14A002146032202F056
:1058680015FA05F14C002146032202F00FFA05F162
:105878004E002146032202F009FA05F150002146A4
:10588800032202F003FA05F152002146032202F036
:10589800FDF904B0BDE8000BF0BDD0B502AF82B091
:1058A800044602F078FAC0B2022801BF48F2481054
:1058B800C4F21F000168052201BF62F30301016001
:1058C8002068416801BF41F008014160032102B02E
:1058D80008BFD0BD41F2E80041F2C403C2F2200083
:1058E800A7F10902009041F2D400C2F22000C2F2EE
:1058F8002003122103F05EF8F0B503AF2DE9000F85
:1059080081B048F600014FF0010CC2F20001BFF36C
:105918005F8FD1E84F2FC1E843CF002BF9D1BFF3F8
:105928005F8F002A01BF48F20001C4F20D01002276
:10593800C4F22F0201BF02F5542C02F5502E02F5D5
:105948004C28A1F5004401BFA1F5003501F5F61674
:1059580001F5F413C0E9683601BFC0E96A54C0E92B
:105968006C8EC0E96EC101F5005C01BF01F5805E77
:105978000425C4F22E0501F5021401BF05F5FE73D6
:1059880001F50046C0E96064C0E9623101BF00F575
:10599800C87383E83040C0F89CC1A1F5404C01BFF2
:1059A80001F5881E01F5861801F5841401F58213A6
:1059B80001BF01F5003602F51025C0E9585600F57B
:1059C800B47501BF85E81A41C0F87CC1A1F5804CC7
:1059D80002F51C2E01BF02F5182802F51424A1F5C2
:1059E800E03301F5282601BF01F5EE15C0E9505650
:1059F80000F5A47585E8184101BFC0E9562C02F5E9
:105A0800782802F5742902F5702401BF02F56C2389
:105A18004CF2000EC4F2070E0EF5004601BF01F568
:105A2800E03C01F58E15C0E9485CC0E94A6101BF58
:105A380000F5987585E81802C0F83C8101F54828FA
:105A480001BF01F5442901F5402A01F53C2B01F578
:105A5800382301BF01F5342401F5302501F52C2642
:105A6800C0E9406501BFC0E94243C0E944BAC0E9A2
:105A7800469802F5302801BF02F52C2902F5282A9C
:105A880002F5242B02F5861301BF02F5841402F5F2
:105A9800821502F58016C0E9386501BFC0E93A43AE
:105AA800C0E93CBAC0E93E9801F5F01801BF01F51C
:105AB8009219A1F5503AA1F5403BA1F5303301BF49
:105AC80001F5901401F58C1501F58A16C0E93065C9
:105AD80001BFC0E93243C0E934BAC0E9369844F29C
:105AE800000301BFC4F2002303F5004803F5804911
:105AF8004FF0844A01BF01F56C2B01F5682501F5CB
:105B08006426A1F5C03401BFC0E92846C0E92A5B74
:105B1800C0E92CA3C0E92E9801BF01F5602801F562
:105B2800E61901F5E81AA1F5203401BF03F5E033C1
:105B380001F5582501F55426C0E9206501BF00F19B
:105B4800880585E81804C0E9259CC0F89C8001BF39
:105B5800A1F5103C01F5FE1801F5001902F5642ABB
:105B680001BF02F5602302F55C2602F5582501F510
:105B7800A03401BF00F1600B8BE87000C0E91B3A4C
:105B8800C0E91D9801BFC0F87CC001F5803C02F552
:105B980040480EF5804901BF01F5804A01F5F2132E
:105BA80044F20806C4F2090601BF06F1100506F121
:105BB8000804C0E91064C0E9125301BFC0E914A980
:105BC800C0E9168C0EF5C03C01F5103801BF01F58F
:105BD800801901F57C2401F5782302F57C2601BFA4
:105BE80002F54825C0E9085600F1280585E818029D
:105BF80001BFC0E90D81C0F83CC002F5442C02F594
:105C08000C2601BF01F5D21501F5242402F5402226
:105C1800A1F5803301BFA1F5A031C0E90013C0E9A7
:105C2800022E103001BF80E8701001B0BDE8000FEF
:105C3800F0BD41F2F80041F23012C2F22000C2F287
:105C48002002352102F0E8FE80B56F46084641F291
:105C58004011C2F220011822BDE8804002F0DBBDED
:105C6800B0B502AFC26AC168012903D1D0E90413F3
:105C7800994250D10168012941D1D0E901139942D3
:105C88003DD200F1180C4FF0020E012403E0D0E9D8
:105C98000113994233D24B1C436041F08003C9B2CF
:105CA800C0F814E041EA032101830021C46003E045
:105CB800D0E904139942EAD01CF80130013101619E
:105CC8005568590041EAD311CBB29D42F0D9956984
:105CD80001F00F012D68BFF35F8FADB225FA01F116
:105CE800C907E5D05169994269D9116903EB830362
:105CF80001EB8303197C4906DAD01846B0BDC169A7
:105D08000023C360012903D1D0E90815A9422BD18A
:105D1800C3611846B0BD00F1180C03E0D0E90413C4
:105D28009942A7D01CF8013001310161546859002B
:105D380041EAD311CBB29C42F0D9946901F00F012A
:105D48002468BFF35F8FA4B224FA01F1C907E5D034
:105D58005169994233D9116903EB830301EB83033A
:105D6800197C4906DAD0C8E700F1280E03E0D0E92B
:105D78000815A942CCD01EF80150013101625468BF
:105D8800690041EAD5115FFA81FC6445EFD994694D
:105D980001F00F012468BFF35F8FA4B224FA01F168
:105DA800C907E4D05169614510D911690CEB8C051C
:105DB80001EB85010D7C6D06D9D00846B0BD41F2D6
:105DC80078121846C2F2200202F012FE41F278124E
:105DD8006046C2F2200202F00BFE80B56F466FF0FB
:105DE8007F42D0E90003914238BF0A46002918BF14
:105DF800511E1B688022002818BF8822995080BD38
:105E080080B56F4682B0D0F80CE00123D0F800C00E
:105E1800CEF80030DEF80430CEF81C2062F31E43C2
:105E2800CEF804300AB3CEF808C040F6FF73DEF8A7
:105E380008209A4302F58052CEF80C20DEF80C2098
:105E48006FF30B0202F58052CEF81020DEF8102016
:105E58006FF30B0202F58052CEF81420DEF81420FE
:105E68006FF30B0202F5805208E00022CEF80820FA
:105E7800CEF80C20CEF81020CEF81420CEF818203A
:105E88008023DEF804204EF6707CCEF2000C42F43B
:105E98000042CEF80420DEF8042063F30702CEF8AF
:105EA80004206A46CDF800E022F01C02BFF34F8FB1
:105EB800CCF80020BFF34F8FBFF36F8F8268C2F812
:105EC80008E0D36823F0FF03D360019201AA22F00F
:105ED8001C02BFF34F8FCCF800202032CCF80020F2
:105EE800BFF34F8FBFF36F8F90F9102008684FF4FE
:105EF8007F03B2F1FF3F4FF4803102F01F02C8BFA9
:105F0800FF23C8BF012191401940C0F8B011D0F853
:105F1800B01159B1D0F8B01100291CBFD0F8B01198
:105F2800002903D0D0F8B0110029F0D102B080BD0B
:105F3800F0B503AF2DE9000B0346D0E901C0DC68DA
:105F48000068D4F804E0C0F30A40E469824238BF2C
:105F58001046CEF30E42A21A824238BF104684453C
:105F680038BF604660B1D3F8009000F0030C0428F5
:105F780009D2002399F80020BCF1010FCA5425D199
:105F8800BDE8000BF0BD40F2FC7300EA030E01F11E
:105F98000108002309EB030619F8035008EB030274
:105FA800747808F8034004339E45B47802F8015C1D
:105FB8005470F4789470EDD1BCF1000FE0D099449E
:105FC80099F80020BCF1010FCA54D9D0194499F8A6
:105FD8000120BCF1020F4A701CBF99F802208A7098
:105FE800BDE8000BF0BDF0B503AF2DE9000784460E
:105FF8004668C8B24D0045EAD015E8B2864217D9BE
:10600800DCF818A005F00F05D7E90298012404FA76
:1060180005FEBFF35F8F5AE8004F44EA0E054AE8D1
:106028000056002EF7D114EA0E0FBFF35F8F03D08E
:106038000020BDE80007F0BDDCF80CE0864545D936
:10604800DCF814E0864548D9DCF800601C46B3F556
:10605800806F06EB80152E6846F000562E602E687D
:1060680028BF4FF480646FF31A4646EA04462E6050
:106078002E685FFA89F4032CDCF808E026F4004A5D
:10608800DCF810C04EB2544608BF04F50044B6F11F
:10609800FF3FD8BF54462C60440101264EF80460E7
:1060A8000EEB401600EB8000746824F0FF04746067
:1060B8004CF820200CEB80000174011D80F8128040
:1060C80080F8119068C1BDE80007F0BD41F2581290
:1060D8007146C2F2200202F08BFC41F2681271464E
:1060E800C2F2200202F084FCF0B503AF4DF804BD03
:1060F80082B004682168002940F0F980D0E9011EC7
:106108004FF0FF33D0E903C2204640F80C3B0B7830
:10611800DBB1497825694A0042EAD112D3B29D42DF
:1061280040F2C580656A02F00F022D68BFF35F8FE9
:10613800ADB225FA02F2D20700F0B980216A99427D
:1061480040F2E18001200521CAE01378266943F076
:1061580001014D0045EAD315EBB29E4240F2A780FB
:10616800666A05F00F053668BFF35F8FB6B226FA88
:1061780005F5ED0700F09B80216A994240F2C38043
:106188001378266943F002014D0045EAD315EBB2B6
:106198009E4240F28C80666A05F00F053668BFF3B0
:1061A8005F8FB6B226FA05F5ED0700F08080216A08
:1061B800994240F2A8801378266943F003014D0004
:1061C80045EAD315EBB29E4271D9666A05F00F0510
:1061D8003668BFF35F8FB6B226FA05F5ED0766D0CD
:1061E800216A994240F28F801378266943F00401AE
:1061F8004D0045EAD315EBB29E4258D9666A05F0C0
:106208000F053668BFF35F8FB6B226FA05F5ED07BE
:106218004DD0216A994276D91378266943F0050151
:106228004D0045EAD315EBB29E4240D9666A05F0A7
:106238000F053668BFF35F8FB6B226FA05F5ED078E
:1062480035D0216A99425ED91378266943F0060150
:106258004D0045EAD315EBB29E4228D9666A05F08F
:106268000F053668BFF35F8FB6B226FA05F5ED075E
:106278001DD0216A994246D91278256942F0070152
:106288004B0043EAD212D3B29D4210D9656A02F09C
:106298000F022D68BFF35F8FADB225FA02F2D20765
:1062A80005D0216A99422ED90120032118E0E26A1B
:1062B800BEF80030934203D8D21AA66AB24202D27C
:1062C800012004210CE0E2629CF801509CF8006077
:1062D800CDE900650D46FFF786FE70B1002029461E
:1062E80022680132226002B05DF804BBF0BD41F2C1
:1062F8009810C2F2200002F01CFB41F2C810C2F252
:10630800200002F04DFB41F288121846C2F220022A
:1063180002F06EFBF0B503AF2DE9000F83B0D1F8A2
:1063280000B0DBF80020002A40F0BE81D1E9013E30
:10633800CA684FF0FF31CBF800101B78DBF810402B
:10634800590041EAD311CDB2AC4233D9DBF824402D
:1063580001F00F01266801248C40BFF35F8F34429F
:1063680028D0DBF82010A94240F2AA810BF10401E1
:106378005B062CD0DBF81030AB4240F29B81DBF897
:1063880024301B68BFF35F8F1C4200F09381DBF859
:106398002040AC4240F29B81DBF81C3005EB8506BF
:1063A80003EB8609D9F80C305B6813F0680F20D02E
:1063B800072100E0052141700121DBF80020017070
:1063C800501CCBF8000003B0BDE8000FF0BDDBF8AF
:1063D8001030002B1FBFDBF824301B68BFF35F8F22
:1063E8005FEAC37319D141F2B810C2F2200002F07B
:1063F800D7FAD1F800C099F81060DCF8B83106F087
:106408001F0574B20126002C48BF1B0CAE40334058
:106418001B0600F0A9800021CDE7DBF82030002B17
:1064280000F05D81DBF804500124DBF81C90082A99
:10643800D5F8AC8199F8103003F01F0C04FA0CF46D
:1064480055D314EA080652D0D9F80830C5F8AC413B
:10645800D5F8402142F40052C5F84021D3E90A2476
:10646800D5F84061B60425D4D5F8402142F400524D
:10647800C5F84021D3E90A24D5F84061B6045FBFC6
:10648800D5F8402142F40052C5F84021D3E90A2446
:106498005CBFD5F840615FEA86460BD4D5F8402149
:1064A80042F40052C5F84021D3E90A24D5F84061E6
:1064B800B604CDD5D5F8403123F40053C5F84031A2
:1064C800CEF804400124CEF8002099F810300A686C
:1064D8005DB203F01F03D2F8B861002D48BF360C37
:1064E8009C402640360600F089800825D9E0D9F876
:1064F8000C60766816F0680F7FF45AAFD5F8B8616B
:106508005BB2002B48BF360C344024067FF483AFBF
:10651800B3F1FF3F4FF48033C8BF01234FF47F0628
:1065280003FA0CF3C8BFFF263340C5F8BC3199F90C
:10653800103080464FF480304FF47F04B3F1FF3FB2
:1065480003F01F030E68C4BFFF24012098402040B9
:106558000C46C6F8780148467146FFF7E9FCD9F8B9
:1065680008C02146054694E0BBF8303004F00F0619
:10657800F340DB073FF44FAFB4F1FF3F4FF48034F3
:106588004FF47F03C8BF0124C8BFFF23AC4023409A
:10659800CCF8BC3199F910304FF480380D684FF4BD
:1065A8007F06B3F1FF3F03F01F03C4BFFF264FF080
:1065B800010808FA03F33340C5F87831D9F80C40DC
:1065C800D9E9013CDCF800506668E469C5F30A457E
:1065D800AA4238BF1546C6F30E42A21AAA4238BFCD
:1065E8001546AB4238BF1D46E5B1D9F800A005F005
:1065F8000306042D029517D2002536E080464FF495
:106608008030B5F1FF3FC8BF01204FF47F0600FA84
:1066180003F0C8BFFF263040C2F878010825D9F832
:1066280008C036E0804634E0CDE9006940F2FC73EA
:1066380005EA03080EF1010900250AEB05031AF81B
:10664800056009EB050293F801C009F805C0043597
:10665800A8459C7802F8016C5470DB789370ECD1F3
:10666800009EDDF8049086B1AA449AF80020012E15
:106678000EF8052009D00EEB05039AF80120022E2A
:106688005A701CBF9AF802209A708046D9F808C040
:10669800029DDCF80000C0F30A424846FFF7B0FB51
:1066A80040460021456088E641F29810C2F2200079
:1066B80002F03FF941F20820C2F2200002F070F91E
:1066C80041F288122846C2F2200202F091F941F202
:1066D80078122846C2F22002214602F089F941F2D6
:1066E80078120020C2F22002002102F081F9F0B5F0
:1066F80003AF2DE9000F83B00E683268002A40F01E
:10670800F781D1E9012ED1F80CA04FF0FF313160AB
:1067180015783269690041EAD511CBB29A4268D935
:10672800726A01F00F01146801228A40BFF35F8F7B
:1067380022425ED0316A994240F2E68106F1040CA9
:10674800690658D03169994240F2D881716A09685E
:10675800BFF35F8F0A4200F0D181316A994240F25B
:10676800E081F16903EB830201EB8209D9F80C207F
:10677800526812F0680F53D199F810300121DCF8F3
:1067880000205DB203F01F03D2F8B841002D01FAD2
:1067980003F148BF240C2140090655D102904FF45B
:1067A8008030B5F1FF3FC8BF01204FF47F0100FAE8
:1067B80003F0C8BFFF210840C2F87801D9E90101F8
:1067C80009684FEA114B6FF3DF2BDA4538BFD34620
:1067D800584538BF8346BBF1000F00F0CC80D9F88C
:1067E80000000BF0030CBBF1040F64D20024024636
:1067F8007CE0052129E031690229C0F08C81716AA9
:106808000968BFF35F8F890740F18581316A0129E3
:1068180040F28E81F1690A6A526812F0680F01D05D
:10682800072112E091F824300122DCF800805DB2E3
:1068380003F01F03D8F8B841002D02FA03F248BF4D
:10684800240C224012060AD000214170012132682E
:106858000170501C306003B0BDE8000FF0BD4FF46C
:106868008032B5F1FF3FC8BF01224FF47F0402FA1E
:1068780003F2C8BFFF242240C8F8782101F11409A7
:10688800D1E9061212684FEA124B6FF3DF2BDA4593
:1068980038BFD346594538BF8B46BBF1000F00F0CF
:1068A800CF80D9F800300BF00304BBF1040F69D294
:1068B80000211A4687E00EF1010A2BF00303002499
:1068C8000AEB04051AF8041015F8012C95F8018054
:1068D800AD780255021904345170A34282F802803F
:1068E800D570EDD1BCF1000F0FD002191EF80410BD
:1068F800BCF1010F117008D00EEB0403BCF1020FBC
:10690800597851701CBF99789170ABF1010101223F
:1069180020F01F034EF6707002EB5114CEF2000007
:1069280004F00302BFF34F8FBBF1610F02D206F1EF
:10693800040C11E024F0030406F1040C03F1200117
:106948000360016003F14001016003F160018033DD
:10695800043C0160F2D152B1012A036007D003F16F
:1069680020010160022A1CBF03F140010160BFF34E
:106978004F8FBFF36F8F484661465A46FFF740FA7C
:106988000298B1E0CDE901490EF1010A2BF00309A3
:1069980000210AEB01021AF801505C1812F801CC28
:1069A80092F80180927803F801C004318945657036
:1069B80084F80280E270ECD1019C06F1040CDDF849
:1069C800089064B15A181EF80150012C157006D0B1
:1069D8007144022C4D7855701CBF89789170ABF1C9
:1069E8000101012223F01F0302EB51114EF67072D0
:1069F80001F00304CEF20002BFF34F8FBBF1610F29
:106A08000FD321F0030103F120051360156003F192
:106A18004005156003F16005803304391560F2D133
:106A280054B1012C136007D003F120011160022C2E
:106A38001CBF03F140011160BFF34F8FBFF36F8F8D
:106A48008046484661465A46E146FFF7D9F930691B
:106A580000281FBF706A0068BFF35F8F5FEAC070CD
:106A680005D141F2E810C2F2200001F099FF306A26
:106A7800002864D0D6F81CC0012172689CF8103038
:106A8800D2F8B8515CB203F01F03002C48BF2D0C9C
:106A980099402940090626D14FF48031B4F1FF3FCF
:106AA800C8BF01214FF47F0401FA03F1C8BFFF24D6
:106AB8002140C2F8BC119CF910304FF480304FF4DB
:106AC8007F05D9F80020B3F1FF3F03F01F03C4BFCF
:106AD800FF250120494698402840C2F878016046C1
:106AE8000022FFF78DF94046C0F804B00021AEE659
:106AF80041F29810C2F2200001F01BFF41F2282059
:106B0800C2F2200001F04CFF41F288121846C2F28E
:106B1800200201F06DFF41F2D810C2F2200001F00E
:106B28003FFF41F278121846C2F2200201F060FFDE
:106B380041F278120120C2F2200201F059FF41F21D
:106B480078120020C2F22002002101F051FFF0B5B6
:106B580003AF2DE9000790B080460068002840F098
:106B680095804FF0FF30C14649F80C0B00200821F2
:106B78000B90CDE9050108F1040A07900121029064
:106B88000090684600F1400500F11006CDF83C90F1
:106B9800049102E00498022836D030462946FFF7CF
:106BA8005FF888B3027C12F07F03F3D0591E072BDD
:106BB80072D8407C0124DAF80030022888BF441CCF
:106BC80003EB810051B2B1F1FF3F6FF44C01D0F8F3
:106BD800C421C8BF6FF0CC014FF0120301EA0201D3
:106BE800E2B2C8BF022302FA03F24FF44023C8BF3F
:106BF8000C2302EA03024FF44003C8BFC0231A441F
:106C08001143C0F8C411C5E700200821CDE90501EA
:106C18000121CDF83C900B900790049102900090D0
:106C28000DE051B2B1F1FF3F06DD81680968C1F39B
:106C38000A425146FFF7E4F8049802281DD030466E
:106C48002946FFF70DF8C0B1027C12F07F03E8D0A7
:106C5800591E082B20D2DAF8003003EB810153B219
:106C6800B3F1FF3F4FF40002D1F8C411C8BF80222E
:106C7800002BE1D41140D8D1DEE7D8F8000001306C
:106C8800C8F8000010B0BDE80007F0BD41F2981048
:106C9800C2F2200001F04DFE41F238220846C2F24D
:106CA8002002072101F0A4FEB0B502AF04682168F4
:106CB800002940F08880D0E901014FF0FF322260BE
:106CC80025690378580040EAD312D0B285426CD9BE
:106CD80091F800C002F00F02616A012505FA02F27C
:106CE8000968BFF35F8F0A425FD0216A814276D973
:106CF800216981426DD9616A0968BFF35F8F0A42D1
:106D080067D0216A814270D9E26900EB800061682E
:106D180002EB8000027C12F07F0508D0A5F1010E7D
:106D2800082D68D201EB8E0101F5E27101E001F551
:106D3800E0714FFA83FE52B20B68B2F1FF3FDABF3F
:106D480023F480336CF310436CF30003BEF1000F9F
:106D58000B602AD45FEACC7127D1211D027C0B6815
:106D680012F07F0512D0A5F1010C082D4BD203EBD0
:106D78008C0E4FFA82FC4FF40005BCF1FF3FDEF8A1
:106D8800C4E1C8BF80251EEA050F0ED055B202F037
:106D98001F02002D4FF00105D3F8B83105FA02F2B1
:106DA80048BF1B0C1A40120603D02068013020602F
:106DB800B0BD82681268C2F30A42FFF721F8206862
:106DC80001302060B0BD41F29810C2F2200001F0FD
:106DD800B0FD41F21820C2F2200001F0E1FD41F2BD
:106DE8008812C2F2200201F003FE41F27812C2F2C8
:106DF800200201F0FDFD41F238227046C2F2200265
:106E0800072101F0F5FD41F238226046C2F2200266
:106E1800072101F0EDFDF0B503AF4DF804BD90B0CA
:106E280004460068002874D160684FF0FF31216083
:106E3800D0F8B811C0F8B811D0F8BC11C0F8BC111E
:106E4800D0F87811C0F878110021C0F87C11D0F87A
:106E5800B01159B1D0F8B01100291CBFD0F8B01149
:106E6800002903D0D0F8B0110029F0D14FF0FF313C
:106E7800C0F8B411D0F8B41159B1D0F8B411002940
:106E88001CBFD0F8B411002903D0D0F8B4110029E0
:106E9800F0D104F10C000F9000200821CDE9050184
:106EA80001210B90079002900090684600F1400580
:106EB80000F11006049102E00498022822D030461E
:106EC8002946FEF7CDFEE8B1017C11F07F02F3D030
:106ED800501E072A23D8626849B2B1F1FF3F6FF408
:106EE8000C0102EB8000D0F8C421C8BF6FF08C0100
:106EF80001EA02014FF40022C8BF08221143C0F87A
:106F0800C411D9E720680130206010B05DF804BBD7
:106F1800F0BD41F29810C2F2200001F00AFD41F2E2
:106F280038220721C2F2200201F062FD80B56F46C7
:106F380090F83420012A29D10268002A54D1CBB212
:106F4800490041EAD3114FF0FF3202600269CBB227
:106F58009A4217D9426A01F00F011268BFF35F8F96
:106F680092B222FA01F1C9070CD0016A994241D9BB
:106F7800C16903EB830201EB820189680A6822F088
:106F880000520A6001680131016080BDEFF3108C86
:106F980072B6036843BB4FF0FF3302690360CBB29C
:106FA800490041EAD311CBB29A4217D9426A01F09B
:106FB8000F011268BFF35F8F92B222FA01F1C9077D
:106FC8000CD0016A994215D9C16903EB830201EB20
:106FD800820189680A6822F000520A60016801315A
:106FE80001608CF3108880BD41F29810C2F2200035
:106FF80001F09FFC41F278121846C2F2200201F01B
:10700800F7FC80B56F4690F83420012A17D1026842
:10701800002A01BF42684FF0FF330360D2F84831BD
:1070280001BF23F0410361F3000361F38613C2F843
:10703800483101BF01680131016080BD18E0EFF3FC
:10704800108C72B603689BB943684FF0FF32026038
:10705800D3F8482122F0410261F3000261F386125D
:10706800C3F848210168013101608CF3108880BDA4
:1070780041F29810C2F2200001F05BFC90F8341045
:10708800012908BFFFF763BDD0B502AFEFF3108445
:1070980072B6FFF75CFD84F31088D0BD80B56F46EB
:1070A80090F83420012A2FD102686FF000439A42E9
:1070B80079D2CBB2490041EAD311013202600269A8
:1070C800CBB29A4275D9426A01F00F011268BFF338
:1070D8005F8F92B222FA01F1C9076AD0016A994218
:1070E8006DD9C26903EB8303416802EB8302127C0A
:1070F80012F07F033BD0A3F1010C072B66D801EBFC
:107108008C0101F5E27134E0EFF3108C72B602687D
:107118006FF000439A4246D2CBB2490041EAD311FC
:10712800013202600269CBB29A4242D9426A01F046
:107138000F011268BFF35F8F92B222FA01F1C907FB
:1071480037D0016A99423AD9C16903EB830342688F
:1071580001EB83010B7C13F07F0115D0A1F1010E27
:1071680007293BD802EB8E0101F5E2710EE001F52B
:10717800E07109680368013B036050B2002848BF0A
:10718800090C01F0010080BD02F5E0710968026890
:10719800013A026058B28CF31088002848BF090CE5
:1071A80001F0010080BD41F2A810C2F2200001F0F8
:1071B800D2FB41F2F810C2F2200001F0F1FB41F2DB
:1071C80088121846C2F2200201F012FC41F238225D
:1071D8006046C2F22002072101F00AFC41F238227F
:1071E8007046C2F22002072101F002FCD0B502AFBE
:1071F80084B007F8161CA7F1150107F8152CA7F19C
:107208001602039190F83410CDE90102012904D146
:1072180001A8FFF749FD04B0D0BD01A8EFF3108421
:1072280072B6FFF741FD84F3108804B0D0BD80B575
:107238006F4690F83420012A12D10268002A01BF53
:1072480042684FF0FF330360490601BF01F18071C6
:10725800C2F854110168013104BF016080BD13E018
:10726800EFF3108C72B6036873B9436849064FF0A0
:10727800FF3201F180710260C3F8541101680131D5
:1072880001608CF3108880BD41F29810C2F2200092
:1072980001F04FFBD0B502AF91F83420012A0FD18D
:1072A8000A68002A60D1D1F804C04FF0FF330B60A0
:1072B800DCF844315A0616D4DA071ED1002233E02E
:1072C800EFF3108C72B60A68002A4DD1D1F804E0A9
:1072D8004FF0FF320A60DEF84421530608D4D20783
:1072E80027D1002339E04022CCF8442101221BE0B9
:1072F80040220123CEF844212FE00122CCF844217A
:10730800DCF8BC21DCF8BC315FFA82FEC3F307432A
:10731800A1F830E01A04CCF8BC218380A0F802E080
:10732800DCF8AC21C28002220B680280581C08607D
:10733800D0BD0122CEF84421DEF8BC21DEF8BC31F4
:10734800D2B2C3F307430A861C04CEF8BC4183803B
:1073580002234280DEF8AC21C2800A680380501CF8
:1073680008608CF31088D0BD41F29810C2F220005A
:1073780001F0DFFAD0B502AF86B0D7F808C007F839
:10738800192C91F83420CDE9043CA7F11903012AFE
:10739800CDE9021304D102A9FEF7BCFF06B0D0BDA7
:1073A80002A9EFF3108472B6FEF7B4FF84F31088D5
:1073B80006B0D0BD90F83410012908BFFFF72BBDE7
:1073C800D0B502AFEFF3108472B6FFF724FD84F353
:1073D8001088D0BDD0B502AF86B0D7F808C007F87E
:1073E800192C91F83420CDE9043CA7F11903012A9E
:1073F800CDE9021304D102A9FFF779F906B0D0BD8F
:1074080002A9EFF3108472B6FFF771F984F31088BC
:1074180006B0D0BD80B56F4690F8341001290CD164
:107428000168002901BF4068D0F8401141F001010E
:10743800C0F8401108BF80BD0EE0EFF3108172B6AE
:1074480002684AB94068D0F8402142F00102C0F809
:10745800402181F3108880BD41F29810C2F22000CB
:1074680001F067FAD0B502AF88B007F8231CA7F17E
:107478002301079102A90691A7F11E01D7E902C4C9
:1074880007F8222CA7F12202059190F83410D7F8BA
:1074980010E0012907F8213C8DF809408DF808C053
:1074A80027F81EECCDE9030204D103A8FEF71CFE61
:1074B80008B0D0BD03A8EFF3108472B6FEF714FE2F
:1074C80084F3108808B0D0BDF0B503AF4DF804BD03
:1074D80091F8D131012591F8D06191F8D241002B72
:1074E80091F8D311D0E9052C0CF1020E01770CF1BB
:1074F8000401C0E900516FF07F0518BF6FF03F0528
:1075080096451CD80CF580731146934238BF19462E
:10751800734532D3A1EB0E01072910D345EA441174
:1075280004694FF0807344F80E3004EB0E03597170
:1075380000219E7119710CF10903934203D90220AD
:107548005DF804BBF0BD94451ED2092104F80C1067
:107558000CF1010191423FBF022262548361FF2076
:107568003CBF5DF804BBF0BD41F258230846C2F2A7
:10757800200311461A4601F03BFA41F2682370468F
:10758800C2F2200301F0D1FC41F248236046C2F266
:10759800200311461A4601F02BFAF0B503AF2DE986
:1075A800000B9446120601D0426909E00268D2B382
:1075B8004468426994425CD20669355D01353555A7
:1075C800D0F818E04FF00108D7E904460EF1040599
:1075D800002CC0E9028508BF26460EF10204944239
:1075E8001DD80EF580781546904538BF4546A0450C
:1075F80037D32D1B072D12D30569D7E902982955D2
:107608002919CB7000238B700EF1090393428E71F8
:1076180081F8058081F8049081F801C007D902201B
:10762800BDE8000BF0BD0720BDE8000BF0BD964596
:1076380028D2092105F80E100EF1010191423FBF31
:1076480004226A548361FF203CBFBDE8000BF0BDF3
:1076580041F258230846C2F2200311461A4601F0A7
:10766800C7F941F268232046C2F22003294601F0F7
:107678005CFC41F278232046C2F2200311461A46E8
:1076880001F0B6F941F248237046C2F220031146D0
:107698001A4601F0ADF94269032A81BF0169806980
:1076A8004880704780B56F4641F288230220C2F2B5
:1076B8002003042101F039FCF0B503AF2DE9000BDC
:1076C800067F012E39D19046D7E90446D0E9052C2A
:1076D8000CF1020E002C08BF264696451DD80CF565
:1076E80080751446954238BF2C46754529D3A4EBBE
:1076F8000E04062C11D30469D7E9029504F80E107C
